{
  "_format": "hh-sol-artifact-1",
  "contractName": "BetNFT",
  "sourceName": "contracts/Market.sol",
  "abi": [
    {
      "inputs": [
        {
          "internalType": "uint256",
          "name": "_betID",
          "type": "uint256"
        },
        {
          "internalType": "uint256",
          "name": "_shares",
          "type": "uint256"
        },
        {
          "internalType": "bool",
          "name": "_option",
          "type": "bool"
        },
        {
          "internalType": "address",
          "name": "_minter",
          "type": "address"
        },
        {
          "internalType": "string",
          "name": "_eventName",
          "type": "string"
        },
        {
          "internalType": "string",
          "name": "_imgURL",
          "type": "string"
        },
        {
          "internalType": "uint256",
          "name": "_endDate",
          "type": "uint256"
        }
      ],
      "stateMutability": "nonpayable",
      "type": "constructor"
    },
    {
      "anonymous": false,
      "inputs": [
        {
          "indexed": true,
          "internalType": "address",
          "name": "owner",
          "type": "address"
        },
        {
          "indexed": true,
          "internalType": "address",
          "name": "approved",
          "type": "address"
        },
        {
          "indexed": true,
          "internalType": "uint256",
          "name": "tokenId",
          "type": "uint256"
        }
      ],
      "name": "Approval",
      "type": "event"
    },
    {
      "anonymous": false,
      "inputs": [
        {
          "indexed": true,
          "internalType": "address",
          "name": "owner",
          "type": "address"
        },
        {
          "indexed": true,
          "internalType": "address",
          "name": "operator",
          "type": "address"
        },
        {
          "indexed": false,
          "internalType": "bool",
          "name": "approved",
          "type": "bool"
        }
      ],
      "name": "ApprovalForAll",
      "type": "event"
    },
    {
      "anonymous": false,
      "inputs": [
        {
          "indexed": true,
          "internalType": "address",
          "name": "from",
          "type": "address"
        },
        {
          "indexed": true,
          "internalType": "address",
          "name": "to",
          "type": "address"
        },
        {
          "indexed": true,
          "internalType": "uint256",
          "name": "tokenId",
          "type": "uint256"
        }
      ],
      "name": "Transfer",
      "type": "event"
    },
    {
      "inputs": [
        {
          "internalType": "address",
          "name": "to",
          "type": "address"
        },
        {
          "internalType": "uint256",
          "name": "tokenId",
          "type": "uint256"
        }
      ],
      "name": "approve",
      "outputs": [],
      "stateMutability": "nonpayable",
      "type": "function"
    },
    {
      "inputs": [
        {
          "internalType": "address",
          "name": "owner",
          "type": "address"
        }
      ],
      "name": "balanceOf",
      "outputs": [
        {
          "internalType": "uint256",
          "name": "",
          "type": "uint256"
        }
      ],
      "stateMutability": "view",
      "type": "function"
    },
    {
      "inputs": [
        {
          "internalType": "uint256",
          "name": "tokenId",
          "type": "uint256"
        }
      ],
      "name": "getApproved",
      "outputs": [
        {
          "internalType": "address",
          "name": "",
          "type": "address"
        }
      ],
      "stateMutability": "view",
      "type": "function"
    },
    {
      "inputs": [],
      "name": "getEndDate",
      "outputs": [
        {
          "internalType": "uint256",
          "name": "",
          "type": "uint256"
        }
      ],
      "stateMutability": "view",
      "type": "function"
    },
    {
      "inputs": [],
      "name": "getID",
      "outputs": [
        {
          "internalType": "uint256",
          "name": "",
          "type": "uint256"
        }
      ],
      "stateMutability": "view",
      "type": "function"
    },
    {
      "inputs": [],
      "name": "getImgUrl",
      "outputs": [
        {
          "internalType": "string",
          "name": "",
          "type": "string"
        }
      ],
      "stateMutability": "view",
      "type": "function"
    },
    {
      "inputs": [],
      "name": "getName",
      "outputs": [
        {
          "internalType": "string",
          "name": "",
          "type": "string"
        }
      ],
      "stateMutability": "view",
      "type": "function"
    },
    {
      "inputs": [],
      "name": "getOption",
      "outputs": [
        {
          "internalType": "bool",
          "name": "",
          "type": "bool"
        }
      ],
      "stateMutability": "view",
      "type": "function"
    },
    {
      "inputs": [],
      "name": "getOwner",
      "outputs": [
        {
          "internalType": "address",
          "name": "",
          "type": "address"
        }
      ],
      "stateMutability": "view",
      "type": "function"
    },
    {
      "inputs": [],
      "name": "getShares",
      "outputs": [
        {
          "internalType": "uint256",
          "name": "",
          "type": "uint256"
        }
      ],
      "stateMutability": "view",
      "type": "function"
    },
    {
      "inputs": [
        {
          "internalType": "address",
          "name": "owner",
          "type": "address"
        },
        {
          "internalType": "address",
          "name": "operator",
          "type": "address"
        }
      ],
      "name": "isApprovedForAll",
      "outputs": [
        {
          "internalType": "bool",
          "name": "",
          "type": "bool"
        }
      ],
      "stateMutability": "view",
      "type": "function"
    },
    {
      "inputs": [],
      "name": "name",
      "outputs": [
        {
          "internalType": "string",
          "name": "",
          "type": "string"
        }
      ],
      "stateMutability": "view",
      "type": "function"
    },
    {
      "inputs": [
        {
          "internalType": "uint256",
          "name": "tokenId",
          "type": "uint256"
        }
      ],
      "name": "ownerOf",
      "outputs": [
        {
          "internalType": "address",
          "name": "",
          "type": "address"
        }
      ],
      "stateMutability": "view",
      "type": "function"
    },
    {
      "inputs": [
        {
          "internalType": "address",
          "name": "from",
          "type": "address"
        },
        {
          "internalType": "address",
          "name": "to",
          "type": "address"
        },
        {
          "internalType": "uint256",
          "name": "tokenId",
          "type": "uint256"
        }
      ],
      "name": "safeTransferFrom",
      "outputs": [],
      "stateMutability": "nonpayable",
      "type": "function"
    },
    {
      "inputs": [
        {
          "internalType": "address",
          "name": "from",
          "type": "address"
        },
        {
          "internalType": "address",
          "name": "to",
          "type": "address"
        },
        {
          "internalType": "uint256",
          "name": "tokenId",
          "type": "uint256"
        },
        {
          "internalType": "bytes",
          "name": "_data",
          "type": "bytes"
        }
      ],
      "name": "safeTransferFrom",
      "outputs": [],
      "stateMutability": "nonpayable",
      "type": "function"
    },
    {
      "inputs": [
        {
          "internalType": "address",
          "name": "operator",
          "type": "address"
        },
        {
          "internalType": "bool",
          "name": "approved",
          "type": "bool"
        }
      ],
      "name": "setApprovalForAll",
      "outputs": [],
      "stateMutability": "nonpayable",
      "type": "function"
    },
    {
      "inputs": [
        {
          "internalType": "bytes4",
          "name": "interfaceId",
          "type": "bytes4"
        }
      ],
      "name": "supportsInterface",
      "outputs": [
        {
          "internalType": "bool",
          "name": "",
          "type": "bool"
        }
      ],
      "stateMutability": "view",
      "type": "function"
    },
    {
      "inputs": [],
      "name": "symbol",
      "outputs": [
        {
          "internalType": "string",
          "name": "",
          "type": "string"
        }
      ],
      "stateMutability": "view",
      "type": "function"
    },
    {
      "inputs": [
        {
          "internalType": "uint256",
          "name": "tokenId",
          "type": "uint256"
        }
      ],
      "name": "tokenURI",
      "outputs": [
        {
          "internalType": "string",
          "name": "",
          "type": "string"
        }
      ],
      "stateMutability": "view",
      "type": "function"
    },
    {
      "inputs": [
        {
          "internalType": "address",
          "name": "from",
          "type": "address"
        },
        {
          "internalType": "address",
          "name": "to",
          "type": "address"
        },
        {
          "internalType": "uint256",
          "name": "tokenId",
          "type": "uint256"
        }
      ],
      "name": "transferFrom",
      "outputs": [],
      "stateMutability": "nonpayable",
      "type": "function"
    }
  ],
  "bytecode": "0x60806040523480156200001157600080fd5b506040516200311438038062003114833981810160405281019062000037919062000782565b6040518060400160405280600f81526020017f547269756d706820426574204e465400000000000000000000000000000000008152506040518060400160405280600581526020017f54424e46540000000000000000000000000000000000000000000000000000008152508160009080519060200190620000bb92919062000458565b508060019080519060200190620000d492919062000458565b505050866007819055508560088190555084600c60006101000a81548160ff02191690831515021790555082600990805190602001906200011792919062000458565b5081600b90805190602001906200013092919062000458565b5080600a8190555083600c60016101000a81548173ffffffffffffffffffffffffffffffffffffffff021916908373ffffffffffffffffffffffffffffffffffffffff160217905550620001906006620001c560201b62000cab1760201c565b620001b884620001ac6006620001db60201b62000cc11760201c565b620001e960201b60201c565b5050505050505062000a58565b6001816000016000828254019250508190555050565b600081600001549050919050565b600073ffffffffffffffffffffffffffffffffffffffff168273ffffffffffffffffffffffffffffffffffffffff16036200025b576040517f08c379a00000000000000000000000000000000000000000000000000000000081526004016200025290620008d4565b60405180910390fd5b6200026c81620003e260201b60201c565b15620002af576040517f08c379a0000000000000000000000000000000000000000000000000000000008152600401620002a69062000946565b60405180910390fd5b620002c3600083836200044e60201b60201c565b6001600360008473ffffffffffffffffffffffffffffffffffffffff1673ffffffffffffffffffffffffffffffffffffffff168152602001908152602001600020600082825462000315919062000997565b92505081905550816002600083815260200190815260200160002060006101000a81548173ffffffffffffffffffffffffffffffffffffffff021916908373ffffffffffffffffffffffffffffffffffffffff160217905550808273ffffffffffffffffffffffffffffffffffffffff16600073ffffffffffffffffffffffffffffffffffffffff167fddf252ad1be2c89b69c2b068fc378daa952ba7f163c4a11628f55a4df523b3ef60405160405180910390a4620003de600083836200045360201b60201c565b5050565b60008073ffffffffffffffffffffffffffffffffffffffff166002600084815260200190815260200160002060009054906101000a900473ffffffffffffffffffffffffffffffffffffffff1673ffffffffffffffffffffffffffffffffffffffff1614159050919050565b505050565b505050565b828054620004669062000a23565b90600052602060002090601f0160209004810192826200048a5760008555620004d6565b82601f10620004a557805160ff1916838001178555620004d6565b82800160010185558215620004d6579182015b82811115620004d5578251825591602001919060010190620004b8565b5b509050620004e59190620004e9565b5090565b5b8082111562000504576000816000905550600101620004ea565b5090565b6000604051905090565b600080fd5b600080fd5b6000819050919050565b62000531816200051c565b81146200053d57600080fd5b50565b600081519050620005518162000526565b92915050565b60008115159050919050565b6200056e8162000557565b81146200057a57600080fd5b50565b6000815190506200058e8162000563565b92915050565b600073ffffffffffffffffffffffffffffffffffffffff82169050919050565b6000620005c18262000594565b9050919050565b620005d381620005b4565b8114620005df57600080fd5b50565b600081519050620005f381620005c8565b92915050565b600080fd5b600080fd5b6000601f19601f8301169050919050565b7f4e487b7100000000000000000000000000000000000000000000000000000000600052604160045260246000fd5b6200064e8262000603565b810181811067ffffffffffffffff8211171562000670576200066f62000614565b5b80604052505050565b60006200068562000508565b905062000693828262000643565b919050565b600067ffffffffffffffff821115620006b657620006b562000614565b5b620006c18262000603565b9050602081019050919050565b60005b83811015620006ee578082015181840152602081019050620006d1565b83811115620006fe576000848401525b50505050565b60006200071b620007158462000698565b62000679565b9050828152602081018484840111156200073a5762000739620005fe565b5b62000747848285620006ce565b509392505050565b600082601f830112620007675762000766620005f9565b5b81516200077984826020860162000704565b91505092915050565b600080600080600080600060e0888a031215620007a457620007a362000512565b5b6000620007b48a828b0162000540565b9750506020620007c78a828b0162000540565b9650506040620007da8a828b016200057d565b9550506060620007ed8a828b01620005e2565b945050608088015167ffffffffffffffff81111562000811576200081062000517565b5b6200081f8a828b016200074f565b93505060a088015167ffffffffffffffff81111562000843576200084262000517565b5b620008518a828b016200074f565b92505060c0620008648a828b0162000540565b91505092959891949750929550565b600082825260208201905092915050565b7f4552433732313a206d696e7420746f20746865207a65726f2061646472657373600082015250565b6000620008bc60208362000873565b9150620008c98262000884565b602082019050919050565b60006020820190508181036000830152620008ef81620008ad565b9050919050565b7f4552433732313a20746f6b656e20616c7265616479206d696e74656400000000600082015250565b60006200092e601c8362000873565b91506200093b82620008f6565b602082019050919050565b6000602082019050818103600083015262000961816200091f565b9050919050565b7f4e487b7100000000000000000000000000000000000000000000000000000000600052601160045260246000fd5b6000620009a4826200051c565b9150620009b1836200051c565b9250827fffffffffffffffffffffffffffffffffffffffffffffffffffffffffffffffff03821115620009e957620009e862000968565b5b828201905092915050565b7f4e487b7100000000000000000000000000000000000000000000000000000000600052602260045260246000fd5b6000600282049050600182168062000a3c57607f821691505b60208210810362000a525762000a51620009f4565b5b50919050565b6126ac8062000a686000396000f3fe608060405234801561001057600080fd5b506004361061012c5760003560e01c806392ed2df6116100ad578063b88d4fde11610071578063b88d4fde14610333578063c87b56dd1461034f578063d73fe0aa1461037f578063d864b8471461039d578063e985e9c5146103bb5761012c565b806392ed2df61461029f57806395d89b41146102bd578063a22cb465146102db578063ab9dbd07146102f7578063b1356488146103155761012c565b806323b872dd116100f457806323b872dd146101e957806342842e0e146102055780636352211e1461022157806370a0823114610251578063893d20e8146102815761012c565b806301ffc9a71461013157806306fdde0314610161578063081812fc1461017f578063095ea7b3146101af57806317d7de7c146101cb575b600080fd5b61014b60048036038101906101469190611709565b6103eb565b6040516101589190611751565b60405180910390f35b6101696104cd565b6040516101769190611805565b60405180910390f35b6101996004803603810190610194919061185d565b61055f565b6040516101a691906118cb565b60405180910390f35b6101c960048036038101906101c49190611912565b6105e4565b005b6101d36106fb565b6040516101e09190611805565b60405180910390f35b61020360048036038101906101fe9190611952565b61078d565b005b61021f600480360381019061021a9190611952565b6107ed565b005b61023b6004803603810190610236919061185d565b61080d565b60405161024891906118cb565b60405180910390f35b61026b600480360381019061026691906119a5565b6108be565b60405161027891906119e1565b60405180910390f35b610289610975565b60405161029691906118cb565b60405180910390f35b6102a761099f565b6040516102b49190611751565b60405180910390f35b6102c56109b6565b6040516102d29190611805565b60405180910390f35b6102f560048036038101906102f09190611a28565b610a48565b005b6102ff610a5e565b60405161030c91906119e1565b60405180910390f35b61031d610a68565b60405161032a91906119e1565b60405180910390f35b61034d60048036038101906103489190611b9d565b610a72565b005b6103696004803603810190610364919061185d565b610ad4565b6040516103769190611805565b60405180910390f35b610387610b7b565b60405161039491906119e1565b60405180910390f35b6103a5610b85565b6040516103b29190611805565b60405180910390f35b6103d560048036038101906103d09190611c20565b610c17565b6040516103e29190611751565b60405180910390f35b60007f80ac58cd000000000000000000000000000000000000000000000000000000007bffffffffffffffffffffffffffffffffffffffffffffffffffffffff1916827bffffffffffffffffffffffffffffffffffffffffffffffffffffffff191614806104b657507f5b5e139f000000000000000000000000000000000000000000000000000000007bffffffffffffffffffffffffffffffffffffffffffffffffffffffff1916827bffffffffffffffffffffffffffffffffffffffffffffffffffffffff1916145b806104c657506104c582610ccf565b5b9050919050565b6060600080546104dc90611c8f565b80601f016020809104026020016040519081016040528092919081815260200182805461050890611c8f565b80156105555780601f1061052a57610100808354040283529160200191610555565b820191906000526020600020905b81548152906001019060200180831161053857829003601f168201915b5050505050905090565b600061056a82610d39565b6105a9576040517f08c379a00000000000000000000000000000000000000000000000000000000081526004016105a090611d32565b60405180910390fd5b6004600083815260200190815260200160002060009054906101000a900473ffffffffffffffffffffffffffffffffffffffff169050919050565b60006105ef8261080d565b90508073ffffffffffffffffffffffffffffffffffffffff168373ffffffffffffffffffffffffffffffffffffffff160361065f576040517f08c379a000000000000000000000000000000000000000000000000000000000815260040161065690611dc4565b60405180910390fd5b8073ffffffffffffffffffffffffffffffffffffffff1661067e610da5565b73ffffffffffffffffffffffffffffffffffffffff1614806106ad57506106ac816106a7610da5565b610c17565b5b6106ec576040517f08c379a00000000000000000000000000000000000000000000000000000000081526004016106e390611e56565b60405180910390fd5b6106f68383610dad565b505050565b60606009805461070a90611c8f565b80601f016020809104026020016040519081016040528092919081815260200182805461073690611c8f565b80156107835780601f1061075857610100808354040283529160200191610783565b820191906000526020600020905b81548152906001019060200180831161076657829003601f168201915b5050505050905090565b61079e610798610da5565b82610e66565b6107dd576040517f08c379a00000000000000000000000000000000000000000000000000000000081526004016107d490611ee8565b60405180910390fd5b6107e8838383610f44565b505050565b61080883838360405180602001604052806000815250610a72565b505050565b6000806002600084815260200190815260200160002060009054906101000a900473ffffffffffffffffffffffffffffffffffffffff169050600073ffffffffffffffffffffffffffffffffffffffff168173ffffffffffffffffffffffffffffffffffffffff16036108b5576040517f08c379a00000000000000000000000000000000000000000000000000000000081526004016108ac90611f7a565b60405180910390fd5b80915050919050565b60008073ffffffffffffffffffffffffffffffffffffffff168273ffffffffffffffffffffffffffffffffffffffff160361092e576040517f08c379a00000000000000000000000000000000000000000000000000000000081526004016109259061200c565b60405180910390fd5b600360008373ffffffffffffffffffffffffffffffffffffffff1673ffffffffffffffffffffffffffffffffffffffff168152602001908152602001600020549050919050565b6000600c60019054906101000a900473ffffffffffffffffffffffffffffffffffffffff16905090565b6000600c60009054906101000a900460ff16905090565b6060600180546109c590611c8f565b80601f01602080910402602001604051908101604052809291908181526020018280546109f190611c8f565b8015610a3e5780601f10610a1357610100808354040283529160200191610a3e565b820191906000526020600020905b815481529060010190602001808311610a2157829003601f168201915b5050505050905090565b610a5a610a53610da5565b83836111aa565b5050565b6000600754905090565b6000600a54905090565b610a83610a7d610da5565b83610e66565b610ac2576040517f08c379a0000000000000000000000000000000000000000000000000000000008152600401610ab990611ee8565b60405180910390fd5b610ace84848484611316565b50505050565b6060610adf82610d39565b610b1e576040517f08c379a0000000000000000000000000000000000000000000000000000000008152600401610b159061209e565b60405180910390fd5b6000610b28611372565b90506000815111610b485760405180602001604052806000815250610b73565b80610b5284611389565b604051602001610b639291906120fa565b6040516020818303038152906040525b915050919050565b6000600854905090565b6060600b8054610b9490611c8f565b80601f0160208091040260200160405190810160405280929190818152602001828054610bc090611c8f565b8015610c0d5780601f10610be257610100808354040283529160200191610c0d565b820191906000526020600020905b815481529060010190602001808311610bf057829003601f168201915b5050505050905090565b6000600560008473ffffffffffffffffffffffffffffffffffffffff1673ffffffffffffffffffffffffffffffffffffffff16815260200190815260200160002060008373ffffffffffffffffffffffffffffffffffffffff1673ffffffffffffffffffffffffffffffffffffffff16815260200190815260200160002060009054906101000a900460ff16905092915050565b6001816000016000828254019250508190555050565b600081600001549050919050565b60007f01ffc9a7000000000000000000000000000000000000000000000000000000007bffffffffffffffffffffffffffffffffffffffffffffffffffffffff1916827bffffffffffffffffffffffffffffffffffffffffffffffffffffffff1916149050919050565b60008073ffffffffffffffffffffffffffffffffffffffff166002600084815260200190815260200160002060009054906101000a900473ffffffffffffffffffffffffffffffffffffffff1673ffffffffffffffffffffffffffffffffffffffff1614159050919050565b600033905090565b816004600083815260200190815260200160002060006101000a81548173ffffffffffffffffffffffffffffffffffffffff021916908373ffffffffffffffffffffffffffffffffffffffff160217905550808273ffffffffffffffffffffffffffffffffffffffff16610e208361080d565b73ffffffffffffffffffffffffffffffffffffffff167f8c5be1e5ebec7d5bd14f71427d1e84f3dd0314c0f7b2291e5b200ac8c7c3b92560405160405180910390a45050565b6000610e7182610d39565b610eb0576040517f08c379a0000000000000000000000000000000000000000000000000000000008152600401610ea790612190565b60405180910390fd5b6000610ebb8361080d565b90508073ffffffffffffffffffffffffffffffffffffffff168473ffffffffffffffffffffffffffffffffffffffff161480610efd5750610efc8185610c17565b5b80610f3b57508373ffffffffffffffffffffffffffffffffffffffff16610f238461055f565b73ffffffffffffffffffffffffffffffffffffffff16145b91505092915050565b8273ffffffffffffffffffffffffffffffffffffffff16610f648261080d565b73ffffffffffffffffffffffffffffffffffffffff1614610fba576040517f08c379a0000000000000000000000000000000000000000000000000000000008152600401610fb190612222565b60405180910390fd5b600073ffffffffffffffffffffffffffffffffffffffff168273ffffffffffffffffffffffffffffffffffffffff1603611029576040517f08c379a0000000000000000000000000000000000000000000000000000000008152600401611020906122b4565b60405180910390fd5b6110348383836114e9565b61103f600082610dad565b6001600360008573ffffffffffffffffffffffffffffffffffffffff1673ffffffffffffffffffffffffffffffffffffffff168152602001908152602001600020600082825461108f9190612303565b925050819055506001600360008473ffffffffffffffffffffffffffffffffffffffff1673ffffffffffffffffffffffffffffffffffffffff16815260200190815260200160002060008282546110e69190612337565b92505081905550816002600083815260200190815260200160002060006101000a81548173ffffffffffffffffffffffffffffffffffffffff021916908373ffffffffffffffffffffffffffffffffffffffff160217905550808273ffffffffffffffffffffffffffffffffffffffff168473ffffffffffffffffffffffffffffffffffffffff167fddf252ad1be2c89b69c2b068fc378daa952ba7f163c4a11628f55a4df523b3ef60405160405180910390a46111a58383836114ee565b505050565b8173ffffffffffffffffffffffffffffffffffffffff168373ffffffffffffffffffffffffffffffffffffffff1603611218576040517f08c379a000000000000000000000000000000000000000000000000000000000815260040161120f906123d9565b60405180910390fd5b80600560008573ffffffffffffffffffffffffffffffffffffffff1673ffffffffffffffffffffffffffffffffffffffff16815260200190815260200160002060008473ffffffffffffffffffffffffffffffffffffffff1673ffffffffffffffffffffffffffffffffffffffff16815260200190815260200160002060006101000a81548160ff0219169083151502179055508173ffffffffffffffffffffffffffffffffffffffff168373ffffffffffffffffffffffffffffffffffffffff167f17307eab39ab6107e8899845ad3d59bd9653f200f220920489ca2b5937696c31836040516113099190611751565b60405180910390a3505050565b611321848484610f44565b61132d848484846114f3565b61136c576040517f08c379a00000000000000000000000000000000000000000000000000000000081526004016113639061246b565b60405180910390fd5b50505050565b606060405180602001604052806000815250905090565b6060600082036113d0576040518060400160405280600181526020017f300000000000000000000000000000000000000000000000000000000000000081525090506114e4565b600082905060005b600082146114025780806113eb9061248b565b915050600a826113fb9190612502565b91506113d8565b60008167ffffffffffffffff81111561141e5761141d611a72565b5b6040519080825280601f01601f1916602001820160405280156114505781602001600182028036833780820191505090505b5090505b600085146114dd576001826114699190612303565b9150600a856114789190612533565b60306114849190612337565b60f81b81838151811061149a57611499612564565b5b60200101907effffffffffffffffffffffffffffffffffffffffffffffffffffffffffffff1916908160001a905350600a856114d69190612502565b9450611454565b8093505050505b919050565b505050565b505050565b60006115148473ffffffffffffffffffffffffffffffffffffffff1661167a565b1561166d578373ffffffffffffffffffffffffffffffffffffffff1663150b7a0261153d610da5565b8786866040518563ffffffff1660e01b815260040161155f94939291906125e8565b6020604051808303816000875af192505050801561159b57506040513d601f19601f820116820180604052508101906115989190612649565b60015b61161d573d80600081146115cb576040519150601f19603f3d011682016040523d82523d6000602084013e6115d0565b606091505b506000815103611615576040517f08c379a000000000000000000000000000000000000000000000000000000000815260040161160c9061246b565b60405180910390fd5b805181602001fd5b63150b7a0260e01b7bffffffffffffffffffffffffffffffffffffffffffffffffffffffff1916817bffffffffffffffffffffffffffffffffffffffffffffffffffffffff191614915050611672565b600190505b949350505050565b6000808273ffffffffffffffffffffffffffffffffffffffff163b119050919050565b6000604051905090565b600080fd5b600080fd5b60007fffffffff0000000000000000000000000000000000000000000000000000000082169050919050565b6116e6816116b1565b81146116f157600080fd5b50565b600081359050611703816116dd565b92915050565b60006020828403121561171f5761171e6116a7565b5b600061172d848285016116f4565b91505092915050565b60008115159050919050565b61174b81611736565b82525050565b60006020820190506117666000830184611742565b92915050565b600081519050919050565b600082825260208201905092915050565b60005b838110156117a657808201518184015260208101905061178b565b838111156117b5576000848401525b50505050565b6000601f19601f8301169050919050565b60006117d78261176c565b6117e18185611777565b93506117f1818560208601611788565b6117fa816117bb565b840191505092915050565b6000602082019050818103600083015261181f81846117cc565b905092915050565b6000819050919050565b61183a81611827565b811461184557600080fd5b50565b60008135905061185781611831565b92915050565b600060208284031215611873576118726116a7565b5b600061188184828501611848565b91505092915050565b600073ffffffffffffffffffffffffffffffffffffffff82169050919050565b60006118b58261188a565b9050919050565b6118c5816118aa565b82525050565b60006020820190506118e060008301846118bc565b92915050565b6118ef816118aa565b81146118fa57600080fd5b50565b60008135905061190c816118e6565b92915050565b60008060408385031215611929576119286116a7565b5b6000611937858286016118fd565b925050602061194885828601611848565b9150509250929050565b60008060006060848603121561196b5761196a6116a7565b5b6000611979868287016118fd565b935050602061198a868287016118fd565b925050604061199b86828701611848565b9150509250925092565b6000602082840312156119bb576119ba6116a7565b5b60006119c9848285016118fd565b91505092915050565b6119db81611827565b82525050565b60006020820190506119f660008301846119d2565b92915050565b611a0581611736565b8114611a1057600080fd5b50565b600081359050611a22816119fc565b92915050565b60008060408385031215611a3f57611a3e6116a7565b5b6000611a4d858286016118fd565b9250506020611a5e85828601611a13565b9150509250929050565b600080fd5b600080fd5b7f4e487b7100000000000000000000000000000000000000000000000000000000600052604160045260246000fd5b611aaa826117bb565b810181811067ffffffffffffffff82111715611ac957611ac8611a72565b5b80604052505050565b6000611adc61169d565b9050611ae88282611aa1565b919050565b600067ffffffffffffffff821115611b0857611b07611a72565b5b611b11826117bb565b9050602081019050919050565b82818337600083830152505050565b6000611b40611b3b84611aed565b611ad2565b905082815260208101848484011115611b5c57611b5b611a6d565b5b611b67848285611b1e565b509392505050565b600082601f830112611b8457611b83611a68565b5b8135611b94848260208601611b2d565b91505092915050565b60008060008060808587031215611bb757611bb66116a7565b5b6000611bc5878288016118fd565b9450506020611bd6878288016118fd565b9350506040611be787828801611848565b925050606085013567ffffffffffffffff811115611c0857611c076116ac565b5b611c1487828801611b6f565b91505092959194509250565b60008060408385031215611c3757611c366116a7565b5b6000611c45858286016118fd565b9250506020611c56858286016118fd565b9150509250929050565b7f4e487b7100000000000000000000000000000000000000000000000000000000600052602260045260246000fd5b60006002820490506001821680611ca757607f821691505b602082108103611cba57611cb9611c60565b5b50919050565b7f4552433732313a20617070726f76656420717565727920666f72206e6f6e657860008201527f697374656e7420746f6b656e0000000000000000000000000000000000000000602082015250565b6000611d1c602c83611777565b9150611d2782611cc0565b604082019050919050565b60006020820190508181036000830152611d4b81611d0f565b9050919050565b7f4552433732313a20617070726f76616c20746f2063757272656e74206f776e6560008201527f7200000000000000000000000000000000000000000000000000000000000000602082015250565b6000611dae602183611777565b9150611db982611d52565b604082019050919050565b60006020820190508181036000830152611ddd81611da1565b9050919050565b7f4552433732313a20617070726f76652063616c6c6572206973206e6f74206f7760008201527f6e6572206e6f7220617070726f76656420666f7220616c6c0000000000000000602082015250565b6000611e40603883611777565b9150611e4b82611de4565b604082019050919050565b60006020820190508181036000830152611e6f81611e33565b9050919050565b7f4552433732313a207472616e736665722063616c6c6572206973206e6f74206f60008201527f776e6572206e6f7220617070726f766564000000000000000000000000000000602082015250565b6000611ed2603183611777565b9150611edd82611e76565b604082019050919050565b60006020820190508181036000830152611f0181611ec5565b9050919050565b7f4552433732313a206f776e657220717565727920666f72206e6f6e657869737460008201527f656e7420746f6b656e0000000000000000000000000000000000000000000000602082015250565b6000611f64602983611777565b9150611f6f82611f08565b604082019050919050565b60006020820190508181036000830152611f9381611f57565b9050919050565b7f4552433732313a2062616c616e636520717565727920666f7220746865207a6560008201527f726f206164647265737300000000000000000000000000000000000000000000602082015250565b6000611ff6602a83611777565b915061200182611f9a565b604082019050919050565b6000602082019050818103600083015261202581611fe9565b9050919050565b7f4552433732314d657461646174613a2055524920717565727920666f72206e6f60008201527f6e6578697374656e7420746f6b656e0000000000000000000000000000000000602082015250565b6000612088602f83611777565b91506120938261202c565b604082019050919050565b600060208201905081810360008301526120b78161207b565b9050919050565b600081905092915050565b60006120d48261176c565b6120de81856120be565b93506120ee818560208601611788565b80840191505092915050565b600061210682856120c9565b915061211282846120c9565b91508190509392505050565b7f4552433732313a206f70657261746f7220717565727920666f72206e6f6e657860008201527f697374656e7420746f6b656e0000000000000000000000000000000000000000602082015250565b600061217a602c83611777565b91506121858261211e565b604082019050919050565b600060208201905081810360008301526121a98161216d565b9050919050565b7f4552433732313a207472616e736665722066726f6d20696e636f72726563742060008201527f6f776e6572000000000000000000000000000000000000000000000000000000602082015250565b600061220c602583611777565b9150612217826121b0565b604082019050919050565b6000602082019050818103600083015261223b816121ff565b9050919050565b7f4552433732313a207472616e7366657220746f20746865207a65726f2061646460008201527f7265737300000000000000000000000000000000000000000000000000000000602082015250565b600061229e602483611777565b91506122a982612242565b604082019050919050565b600060208201905081810360008301526122cd81612291565b9050919050565b7f4e487b7100000000000000000000000000000000000000000000000000000000600052601160045260246000fd5b600061230e82611827565b915061231983611827565b92508282101561232c5761232b6122d4565b5b828203905092915050565b600061234282611827565b915061234d83611827565b9250827fffffffffffffffffffffffffffffffffffffffffffffffffffffffffffffffff03821115612382576123816122d4565b5b828201905092915050565b7f4552433732313a20617070726f766520746f2063616c6c657200000000000000600082015250565b60006123c3601983611777565b91506123ce8261238d565b602082019050919050565b600060208201905081810360008301526123f2816123b6565b9050919050565b7f4552433732313a207472616e7366657220746f206e6f6e20455243373231526560008201527f63656976657220696d706c656d656e7465720000000000000000000000000000602082015250565b6000612455603283611777565b9150612460826123f9565b604082019050919050565b6000602082019050818103600083015261248481612448565b9050919050565b600061249682611827565b91507fffffffffffffffffffffffffffffffffffffffffffffffffffffffffffffffff82036124c8576124c76122d4565b5b600182019050919050565b7f4e487b7100000000000000000000000000000000000000000000000000000000600052601260045260246000fd5b600061250d82611827565b915061251883611827565b925082612528576125276124d3565b5b828204905092915050565b600061253e82611827565b915061254983611827565b925082612559576125586124d3565b5b828206905092915050565b7f4e487b7100000000000000000000000000000000000000000000000000000000600052603260045260246000fd5b600081519050919050565b600082825260208201905092915050565b60006125ba82612593565b6125c4818561259e565b93506125d4818560208601611788565b6125dd816117bb565b840191505092915050565b60006080820190506125fd60008301876118bc565b61260a60208301866118bc565b61261760408301856119d2565b818103606083015261262981846125af565b905095945050505050565b600081519050612643816116dd565b92915050565b60006020828403121561265f5761265e6116a7565b5b600061266d84828501612634565b9150509291505056fea264697066735822122047829adf328a95e8d874695782ac4bc22522dd1664784ad0745d59b206be908764736f6c634300080d0033",
  "linkReferences": {},
  "deployedLinkReferences": {}
}